:400000000010002011000000A50A0000A50A000080B500AF03F0CEFE00F048FD80B500AF2E4B12221A60302003F010FD2C4B802252001A608023DB052A4A1A602A4BA02261
:40004000D2001A608023DB05284A1A60284BB82252011A608023DB05264A1A60264B822292001A608023DB05244A1A60244B254A1A608023DB05244A1A60244BFE2212024C
:400080001A608023DB05224A1A60224BA022D2001A608023DB05204A1A60204B20221A601F4B81221A601F4B43221A601E4B43221A601E4B80221A601D4B44221A601D4B07
:4000C00040221A601C4B42221A601C4B00221A60002003F08BFEBD4680BDC046300010400403004041FF00800404004081FF00800C03004043FF00800004004080FF0080D7
:4001000010030040007FBB0044FF00800003004040FF00800803004042FF00802800034038010040340100403001004024010040100100400C010040080100400C020640F7
:4001400080B500AF72B6234B234A1A60234BE022D2031A60224B70221A60224BEE221A60214B00221A60214B01221A60204B04221A60204BDB2252001A601F4BFA221A609F
:400180001E4BC32252031A601D4BAA221A601D4B7F221A601C4BC02252031A601B4B3F221A601B4BE0221A601A4BE0221A601A4B03221A60194B24221A60194B04221A60A9
:4001C000184B04221A60FFF729FF00F0EBFCBD4680BDC04600000240EE08000000020240000302400004024004013F4034023440000004400800044000010440080104406A
:400200001801044000020440080204401802044000030440180304400004044008040440000504401805044010B5064C2378002B07D1054B002B02D0044800E000BF012376
:40024000237010BDC801002000000000C851000008B5084B002B03D00748084900E000BF07480368002B00D108BD064B002BFBD09847F9E700000000C8510000CC01002048
:40028000B00000200000000098B500AF01F09EF9021C2023134009D1054B064A13CA13C313CA13C313CA13C312881A80BD4698BDE40100200C02002080B500AF62B600F0F8
:4002C00013F8012000F066FF031E07D000F006F900F090F900F034FA00F09EFA00F020FBFFF7D2FFEDE7C04680B500AF244B802252001A804020002100F094F8402001216B
:4003000000F090F81020022100F08CF81020032100F088F801F0B8F81A4B262000211A1C01F070F9184B022002211A1C01F08EF901F0B6FC00F030FE00F022FE00F0D8FAD4
:4003400000F02EF900F042FA00F0CAF900F094FB00F034FE00F004FF0C4B16221A600C4B0B4A12681202120ABF2109060A431A60084B084A126808490A431A60BD4680BD67
:400380000C020020E401002032020020200234407802344004003A400000404080B500AF034B00229A8202F0C7FFBD4680BDC0460C02002090B583B000AF78600A1CFB1C5C
:4003C0001A707B681B027B60FB1C1C78FB1C1A78124B5200D35A1BB2013BFA1C1178104A89008A585A437B68D118FB1C1A780B4B5200D35A1BB2081C191C04F041F8031CA2
:40040000191C074BA200D150FB1C1A78044B9200D3581B12181CBD4603B090BD440200203402002080B582B000AF021CBB1D1A807B1D0A1C1A707B1D1A78BB1D1988034BBE
:400440005200D152BD4602B080BDC0464402002080B582B000AF021CBB1D1A80BB1D00229A5E024B1A60BD4602B080BD4C02002080B584B000AF021CBB1D1A800F23FB18FD
:4004800006221A70BB1D1A88134B1B689BB2D31A9AB20C23FB181A800C23FB1800229A5E0F23FB181B781A410B4B1B68D2180A4B1A600C23FB181A880F23FB181B78013BB4
:4004C000012199400B1C9BB2D31A9BB29BB21BB2181CBD4604B080BD4C02002090B585B000AF002000F086FE031C1A1C0E23FB181A80012000F07EFE031C1A1C0C23FB188F
:400500001A80022000F076FE031C1A1C0A23FB181A800E23FB181A880C23FB181B88D31A181C0021FFF746FF021C0823FB181A800C23FB181A880A23FB181B88D31A181C46
:400540000121FFF737FF031C9AB2144B5A800823FB181A88114B5B889BB212B21BB2101C191C00F0E1FB031C9AB20C4B9A800B4B9B88BC1D181C00F021FC031C2380BB1D56
:4005800000229B5E181C0A2103F07AFF031C9AB2024BDA80BD4605B090BDC0460C02002080B500AF054B0022DA80044B00225A80024B00229A80BD4680BDC0460C02002012
:4005C00080B584B000AF021CBB1D1A80BB1D1B88074A5343181CFA23990003F051FF031CFB60FB689BB2181CBD4604B080BDC046050D000080B582B000AF032000F0FAFD3A
:40060000031C1A1CBB1D1A80042000F0F3FD031C1A1C3B1D1A80BA1D3B1D12881B88D31A9BB29BB21BB2002B00DA01335B109BB21BB2181C0221FFF7BDFE021CBB1C1A8093
:40064000134B1B88002B08D0124BBA1C12881A800F4B00221A8000F059F80E4B1B88BA1C1288D31A9BB29BB21BB2181C00F016F8031C9AB2084B1A81074B1B89181CFFF74D
:400680009FFF031C1A1C044B5A81BD4602B080BD32020020CE0200200C02002080B584B000AF021CBB1D1A80BB1D00229B5E0A4A5343181C094903F0E3FE031CFB60FB68FD
:4006C000002B01DA0023FB60FB689BB21BB2181CBD4604B080BDC04679A7FFFF1027000080B500AF01F01AFB064B00221A81054B00225A81FE23DB011A88034B1A80BD46A7
:4007000080BDC0460C020020CE02002080B5A2B000AF00238422BA181360084B1A883B1D1A803B1DFE20191C02F03CFF031C8422BA181360BD4622B080BDC046CE02002043
:4007400080B500AF052000F055FD031C9BB21B4A944663449BB29AB2194B9A81194B1B78002B09D1164B9B891BB2181CFFF770FE144B01221A701EE0114B9B891BB2181C53
:40078000FFF776FE031C1A1C0D4BDA810C4BDB891BB2242B04DC0A4BDB891BB224330ADA02F0CAFD084B181C02F0DEFD02F0B2FD034B01229A82BD4680BDC04601F8FFFFD7
:4007C0000C020020CC0200208713000080B500AF01F0E2FA0D4B24221A820C4B242252425A820A4B00229A81084B0022DA81074B00229A8202F00AFE054B181C02F018FED3
:40080000044B00221A70BD4680BDC0460C0200209D030000CC02002080B500AF062000F0E9FC031C181C0321FFF7C4FD031C9AB2084BDA8200F010F8064B1B8B1BB2322B7B
:4008400003DD044B01229A8302E0024B00229A83BD4680BD0C02002080B582B000AF214B1B88002B0AD1204BDA8A1F4B5A831D4B1B8801339AB21B4B1A8030E0194B1B884A
:400880001A4A934218D8184B5B8B9AB2164BDB8A9BB2D3189BB29AB2134B5A83124B5B8B1BB25B109AB2104B5A830E4B1B8801339AB20C4B1A8012E00B4B5B8B9AB20A4B6D
:4008C000DB8A9BB2D31A9AB2BB1D1A80BB1D1B881AB2002A00DA00239AB2034B1A83BD4602B080BD500200200C020020E703000080B500AF01F0A6FA03F0C2FA03F0C6FAA3
:40090000064B0022DA82054B00225A83034B00221A83024B00229A83BD4680BD0C02002080B582B000AF01F0FBFC031E24D1144B5B8E7B60124B1B8D3B607B689AB2114B30
:40094000DA833B689AB20F4B1A840E4B1A8C0D4BDB8B101C191C00F017F8031C1A1C094B5A84084B5B8C181C00F042F8031C1A1C044B9A8401F02CFDBD4602B080BDC04623
:400980001C0300200C02002090B583B000AF021CBB1D1A803B1D0A1C1A80BB1D1B88124A94466344181C04F07DFA031C181C0F4903F0A8FF031C1C1C3B1D1B880A4A94463F
:4009C0006344181C04F06EFA031C201C191C03F061FE031C181C03F045FE031C9BB2181CBD4603B090BDC04600FAFFFF0080DE4480B584B000AF021CBB1D1A80BB1D1B88EF
:400A00001B4A944663449AB20E23FB181A800E23FB1800229B5E64225343181C1F2103F02FFD031C9BB2134A944663449AB20C23FB181A800C23FB1800229B5E002B0BDBB8
:400A40000C23FB181B8819B2FA229200914201DDFA239B009AB200E000220C23FB181A800C23FB181B88181CBD4604B080BDC046F8F8FFFF2602000080B500AF01F046FA47
:400A800001F0A6FC064B00229A84054B00221A84034B0022DA83024B00225A84BD4680BD0C02002080B500AFFEE7C04680B586B000AF224B7B61224B3B61204B7B6135E0E3
:400AC0003B691B68FB603B695B68BB603B699B683B6000237B600CE0FB681A68BB681A60BB680433BB60FB680433FB607B6804337B607A683B689A42EED13B69DB683B6043
:400B000000237B6008E0BB6800221A60BB680433BB607B6804337B607A683B689A42F2D13B6910333B617B69013B7B617B69002BC6D104F011FBFFF7BFFBFEE701000000C7
:400B40006C6D000080B582B000AF00237B600FE07B68032B04D80E4B7A689200D35800E00C4B0D4A796889008B507B6801337B607B68282BECD9FFF7E3FA084B00221A6032
:400B8000074B802292051A60BD4602B080BDC04600000000A50A000000000020A800002008ED00E080B500AF294B03221A60294B10221A60284B802212061A60274B284A2A
:400BC0001A60284B284A1A60284B294A1A60294B294A1A60294B802212061A60284B294A1A60294B294A1A60294B802212061A60284B294A1A60294B294A1A60294B0722EC
:400C00001A60294B08221A60284B40221A60284B284A1A60284B294A1A60294B802212061A60284B284A1A60284B294A1A60294B03221A60284B294A1A60294BF1221A6039
:400C4000284B00221A60012000F04EF8BD4680BD08210240C0020C4000003040800030400408800088003040021000019000304020000001C000304020000100000031407B
:400C80008000314002410200880031401000880100003840100038400700000118003840020000026000384010013840300138404801384000080008C001384002000800B2
:400CC00000003A4000033A40E002400040033A40E200400008013F4000023F400100008004023F40000E3F4080B584B000AF021CFB1D1A700B4B1B68FB60FB1D1B78002B7E
:400D000005D0FB68802212061343FB6003E0FB685B005B08FB60034BFA681A60BD4604B080BDC04680033A4080B584B000AF021CBB1D1A803B1D0A1C1A803B1D00229B5E5D
:400D40001D4A5343BB60BB1D00229B5E002B17DABB1D1B885B429AB20E23FB181A800E23FB181B885B089AB20E23FB181A800E23FB181B885B429AB20E23FB181A8006E002
:400D8000BB1D1B885B089AB20E23FB181A800E23FB1800229B5EBA68D318BB60BB1D00229B5EB868191C03F06BFB031CBB60BB68181CBD4604B080BD1027000080B584B0DE
:400DC00000AF78600E23FB1800221A800C23FB185E4A1A8049E00E23FB181A880C23FB181B88D3185A100A23FB181A800A23FB181B88002B0ED00A23FB181B88534A934284
:400E000008D00A23FB181A88514B9200D2587B689A4206D10C23FB180A22BA1812881A802BE00A23FB181A88494B9200D2587B689A420DD90E23FB180A22BA1812880132A5
:400E40001A800C23FB180C22BA1812881A800CE00C23FB180A22BA181288013A1A800E23FB180E22BA1812881A800E23FA180C23FB1812881B889A42ADD30C23FB181A884B
:400E8000334B9200D2587B689A4220D90C23FB181B88304A93421AD80C23FB181A882C4B9200D2587B68D21A0C23FB181B88591C274B8900CB587968CB1A9A4207D90C230B
:400EC000FB181A880C23FB1801321A8027E00C23FB181A881E4B9200D2587B689A421ED20C23FB181B88002B19D00C23FB181B885A1E174B9200D2587B68D21A0C23FB18EA
:400F00001988134B8900CB587968CB1A9A4206D20C23FB181A880C23FB18013A1A800C23FB181B881A1C9200D318DB189BB20A4A944663449AB20823FB181A800823FB1882
:400F40001B881BB2181CBD4604B080BD72060000CC5100007106000060F0FFFF80B500AF054B054A1268802109060A431A60034BF0221A60BD4680BD00023F4008023F40E7
:400F800080B500AF034B034A126801210A431A60BD4680BD08023F4080B500AF064B1B78002B04D1044B01221A70FFF7D7FFFFF7E7FFBD4680BDC0465202002080B500AF7C
:400FC0000A4B1B7801221340DBB2002B08D100F033F9064B1B7801221343DAB2034B1A7000F010FAC046BD4680BDC0465402002080B584B000AF78607B689A68474B1B687F
:40100000002B02DA80235B0300E000231A43111C434B434A12680A431A60424A7B68DB681360414A7B689B691360404A7B68DB6913603F4A7B681B6913603E4A7B685B69FF
:4010400013603D4B00221A603C4B00221A603A4A7B689B6A1360394A7B685B6A1360384B01221A60374B1B68BB607B689B68F0221340402B04D07B689B68F022134008D14B
:40108000BB68314A1340BB60BB6801221343BB6008E0BB68802292051343BB60BB6801229343BB60274BBA681A600023FB602CE07B681A68FB68D218244B9200D358244A9D
:4010C0001340BB607B681A68FB68D218214B9200D358BA681343BB607B681A68FB68D2181C4B9200D25880235B04134003D0BB68194A1340BB60FB689B00184A9446634442
:40110000BA681A60FB680133FB607B685A68FB689A42CDD8C046BD4604B080BD80033A4000003A4004003A4018003A401C003A4010003A4014003A4028023A4038023A4011
:4011400018023A4030003A40FFFFFFDF986B000000370080E86B0000FFFEFFFF80003A4080B500AF094B1A688023DB02134007D0064B064A1268802149020A431A6002E03F
:40118000034B01221A60C046BD4680BD04003A4024003A4080B584B000AF78600023FB60124BBB607B68012B02D07B68022B17D10F4B1B6801221340FB60BB68013BBB60FB
:4011C000FB68002B06D17B680222134002D0BB68002BEDD1FB68002B02D0054B01221A60FB68181CBD4604B080BDC046FFFFFF0310023A4080B584B000AF78607B68062BE4
:4012000002D9002002F06CFD7B68062B09D87B689B00084A944663441B681B041B0CFB6001E00023FB60FB689BB21BB2181CBD4604B080BD80013A4080B584B000AF0023B4
:40124000FB600023BB60654B1B78002B00D0C0E00023FB6085E0624BFA689200D25880239B00134011D05F4ABB6834214B43D31808335B680122134003D08023DB007B609D
:4012800006E080235B007B6002E080235B017B60534BFA689200D25880235B00134029D1504ABB6834214B43D31808335B680422134019D04B4ABB6834214B43D318083300
:4012C0001A68E0231B011A40E0231B019A420BD17B68002B00DA01335B105B4299B2424BFA685200D1520AE03F4BFA6852000021D15204E03C4BFA6852000021D1527B6897
:401300003A4A5A433749BB6834204343CB1828335B68D018334ABB6834214B43D31828335B685B00191C03F0ABF8031C9BB219B22F4BFA689200D1502A4BBA6834214A4335
:40134000D2582849BB6834204343CB185B68D218FB689A4202D1BB680133BB60FB680133FB60FB68062B00D875E70F20032102F027FC204B0F20191C02F0FCFB0023BB60A9
:401380000DE0184ABB6834214B43D31820331968194BBA689200D150BB680133BB60BB68002BEED0154B1B78002B12D1134B01221A700023BB60BB6834225A43094BD318C3
:4013C000181CFFF715FE0E4B0B4AB96889008A581A60C046BD4604B080BDC04654020020986B0000B46B0000EC02002010270000D00200203D1400005C02002055020020E7
:4014000020003A4080B500AF0A4B1B68002B0EDBC046094B1B68002BFBDB064B054A1268802109060A431A600A2002F087FCC046BD4680BD00003A40A0023A4080B582B0F1
:4014400000AF044B1B687B60024B7A681A60BD4602B080BD10023A4080B500AF00F032F8BD4680BD80B500AF064B064A1268802109060A431A6000F019F800F01FF8BD462A
:4014800080BDC0460000094080B500AF064B1B78002B04D1FFF7E0FF034B01221A70FFF7E1FFBD4680BDC0466002002080B500AF0A2002F0D9FBBD4680BDC04680B500AF6C
:4014C000BD4680BD80B500AF274B802252021A60264B274A1A60274B274A1A60274B00221A60274B274A1A60274B234A1A60274B00221A600A2002F0CBFB0A20032102F039
:401500005FFB234B0A20191C02F034FB214B00221A60214B00221A60204B5222FF321A601F4B00221A601F4B00221A601E4B00221A601E4B00221A701D4B00221A701D4B27
:4015400000221A801C4B00221A701C4B00221A801B4B00221A701B4B08221A701A4B09221A70BD4680BDC0460000094060000940000800400003094007010080040309408F
:40158000100309401000FC00000209400402094095160000C80E0940880E0940480F0940080F0940C80F0940880F094018030020FD0200200E030020060300200A0300209F
:4015C00004030020FC0200200503002080B582B000AF0A2002F05CFB094B1B78DBB27B60074B1B78DBB21F229343DAB2044B1A700A2002F039FB7B68181CBD4602B080BD5F
:40160000FD02002080B584B000AFF860B9607A607B68002B10D00A2002F03AFB084B7A681A60FB689AB2074B1A80BB689AB2064B1A800A2002F018FBBD4604B080BDC0461C
:40164000000300200C0300201003002080B584B000AFF860B9607A607B68002B10D00A2002F016FB084B7A681A60FB689AB2074B1A80BB689AB2064B1A800A2002F0F4FAB9
:40168000BD4604B080BDC046140300201A0300200803002080B588B000AF0123FB60C74B1B68002B02D0C54B1B689847C44B1B78002B02D1C34B1B8801E0C34B1B88FB61B3
:4016C000C24B1B68BB60C24B1B687B60BA680223FF33134049D0BF4BBE4A1268520052081A60BD4B1B78DBB220229343DAB2BA4B1A70B94B1B78DBB210221343DAB2B64BA9
:401700001A70B64B1B68102213400FD1B44B1B789AB2AC4B1B889A4210D0AF4B1B78DBB208221343DAB2AC4B1A7007E0AA4B1B78DBB202221343DAB2A74B1A70A94BA94AF6
:401740001268A9490A401A60A84B00221A60A34B00221A60A64B00221A709E4B9D4A1268802109060A431A6019E27B681022134002D0A04B00221A607B680A22134000D1D3
:40178000CAE09D4B1B680422134061D07B680222134000D0C0E0994B1B683B60944B1B78002B1DD0012B4BD1954B1B88002B13D0944B01221A60944B1A68FB69D3183A686D
:4017C000D2B21A70FB690133FB618D4B1B88013B9AB28B4B1A8037E08A4B02221A6033E08A4B1B881A1E3B689A4225D9854B01221A603B68FB61864B1B881A1E3B689A4213
:4018000006D9834B1A883B689BB2D31A9AB200E000227B4B1A80764B01221A70684B1B78002B04D1FB69DAB26D4B1A700CE0FB69DAB2784B1A7007E0724B02221A6003E09A
:40184000002002F04DFAC046734B04221A6063E0644B1A6880239B0113405DD07B680222134023D06D4B1B681F2213403B616C4B1B684022134010D0684B1B681F22134027
:401880003B61664B1A6880231B0213405A425341DBB21A1C3B699B1A3B61524B514A126851490A401A6001237B6113E0544B1B88083B9AB2524B1A80514B1B88082B05D804
:4018C0004F4B1B883B6100237B6103E008233B6101237B610DE04C4B1A68FB69D218474B1B68DBB21370FB690133FB613B69013B3B613B69002BEED17B69002B09D1394B82
:40190000384A1268802109020A431A60374B00221A60414B0C221A607B680222134000D116E1BB681022134000D17FE02A4B1B78DBB220221340DBB2002B00D176E02B4B6D
:4019400000221A60254B00221A600223BB611C4B1B78002B03D1224B1B781A1C02E02D4B1B781A1CFB699A4203D0BB6908221343BB61BB69BA681340BB61114B1B781A1C7F
:40198000BB69D340BB61144B1B78DBB21A1CBB691343BB61BB6920229343BB61BB69DAB20D4B1A70124B00221A70054B1B78002B38D1FB699AB2034B1A8037E0640200204A
:4019C000680200200E0300200A030020400F0940000E094000000940FD020020880F09400603002060000940FF5FFFFFC80F094018030020880E0940CC0F094040030940B0
:401A00006A0200206C0009406C020020700200207202002004030020C00F0940080309404C0F0940FB699AB2654B1A80BB684022134000D189E0634B1B685B083B60624B92
:401A400004221A60614B1B781A1E3B689A420FD15F4B1A685F4B1A605F4B1A885F4B1A805F4B1A885F4B1A805F4B00221A7017E05E4B1B781A1E3B689A420FD15C4B1A6837
:401A8000544B1A605B4B1A88544B1A805A4B1A88544B1A80544B01221A7001E00023FB60FB68002B0FD1554B01221A60544B554A1A60554B544A126810218A431A60534B30
:401AC00002221A6041E0524B1B78DBB220221343DAB24F4B1A70444B1B78002B02D14D4B1B7801E04C4B1B78FB614C4B1B681022134018D0394B1A88FB699BB2D31A9AB2D9
:401B0000474B1A80474B474A1268802149020A431A60444B434A126843490A401A60434B10221A6002E0424B04221A60334B01221A60334B334A1A60334B334A12681021C4
:401B40000A431A60314B01221A602D4BBA681A60384B1B680422134021D0314B1B88002B11D0354A1B4B1968FB69CB181B78DBB21360FB690133FB61294B1B88013B9AB203
:401B8000274B1A8002E02C4BFF221A602B4B1B681F221340082BE0D1294B10221A60124B1B78002B04D1FB699AB2264B1A8003E0FB699AB2024B1A80BD4608B080BDC04671
:401BC0000A03002040030940C00F0940FC020020000300206C0200200C0300207002002010030020720200206802002005030020140300201A03002008030020800E094095
:401C0000400F0940FF0F0000480F09406C000940FD0200200603002004030020640009406A02002004020940FFFFFEFF880F0940C80F0940000E0940400209400802094082
:401C4000800F09400E03002080B500AF074B03221A60074B802212061A60064B04221A60054B03221A60BD4680BDC046780200200000314008003140140F314080B500AFDE
:401C8000054A054B1968054B1B680B43802109010B431360BD4680BD080031407802002080B500AF064B1B78002B04D1FFF7CCFF034B01221A70FFF7E1FFBD4680BDC04684
:401CC0007402002080B500AF074B03221A60074B802212061A60064B04221A60054B02221A60BD4680BDC046800200200000304008003040140F304080B500AF054A054B2E
:401D00001968054B1B680B43802109010B431360BD4680BD080030408002002080B500AF064B1B78002B04D1FFF7CCFF034B01221A70FFF7E1FFBD4680BDC0467C020020FD
:401D400080B500AF074B03221A60074B802212061A60064B04221A60054B03221A60BD4680BDC046880200200000304004003040080F304080B500AF054A054B1968054B79
:401D80001B680B43802109010B431360BD4680BD040030408802002080B500AF064B1B78002B04D1FFF7CCFF034B01221A70FFF7E1FFBD4680BDC0468402002080B500AF5E
:401DC0000F4B8022D2041A600D4B0D4A12681A60002000F049F80A4B094A12681A60094B0C221A60012000F085F8074B31221A60012000F047F8012000F052F8BD4680BD73
:401E000040020140640201406802014090B583B000AFFC1D02F095F9031C2370084B084A126820210A431A60FB1D1B78181C02F08CF92020182100F041F8BD4603B090BD39
:401E40000000014080B500AF064B1B78002B04D1FFF7B4FF034B01221A70FFF7D7FFBD4680BDC0468C02002080B582B000AF7860034B7A681204120C1A60BD4602B080BD37
:401E80004802014080B582B000AF7860034B7A681204120C1A60BD4602B080BD5402014080B582B000AF7860034B7A681204120C1A60BD4602B080BD4C02014090B585B07B
:401EC00000AF786039600F23FC1802F03AF9031C2370074B3A68796891400A1C1A600F23FB181B78181C02F030F9BD4605B090BD0800014080B582B000AF7860024B7A68CD
:401F00001A60BD4602B080BD7802014090B583B000AF00F037F8031C7B607B68002B03D100F0D2FA031C7B607B68002B03D100F04FFA031C7B607B68002B1ED1FC1C02F086
:401F400000F9031C23700BE001F00CFFFB1C1B78181C02F0FAF8FC1C02F0F3F8031C237000F0DEF9031EEFD1FB1C1B78181C02F0ECF800F0D7F800F01DF97B68181CBD462B
:401F800003B090BD80B582B000AF0B4B1B78002B06D100F065F800F0B3F8074B01221A7000F00CF800F046FA031C7B607B68181CBD4602B080BDC0468D02002080B584B0F4
:401FC00000AF0023FB6010E0234BFA68043292000021D150204AFB6802339B00D318012252425A60FB680133FB60FB68002BEBD01A4BBB600123FB6025E0BB685B687B60F1
:40200000FB1CBA68127E1A70134AFB68D318103300221A71FB1C1B78012B00D010E0BB681B69002B0BD0BB681A697B68DB79191CBB68DB8A101C1A1C03F0BDF8FFE7C046DF
:40204000BB681C33BB60FB685A1EFA60002BD4D1BD4604B080BDC0461C030020046C000080B586B000AF214B7B60214B181C0021442203F0A0F81E4B1E4A1A801C4BE0223E
:4020800052005A801A4B0822DA82194B02221A76174B1A2218499B180E22181C03F082F8164BBB6001233B6118E0BB689B68FB60BB68DB8A7B6109E07B681A78FB685A71C9
:4020C0007B6801337B60FB680A33FB607B695A1E7A61002BF0D1BB681C33BB603B695A1E3A61002BE1D1BD4606B080BD686C00001C030020DC0C0000586C0000046C00008A
:4021000080B582B000AF054B7B607B6800229A80034B00221A60BD4602B080BD1C0300209802002090B587B000AF0023FB6001237B6134E07A69131CDB009B1A9B001C4A0A
:402140009B18BB60BB68DB8A7B607B683B6121E0BB689B68FB603A69131C9B009B185B001A1CFB689B18FB60BB68DB683B60BB681B7E062B04D03A683B695B00D3183B6022
:40218000BB681B7E1C1C3A68FB68101C191C221C00F0A8F83B695A1E3A61002BD8D17B695A1E7A61002BC5D1BD4607B090BDC046046C000080B582B000AF01237B6003E0FF
:4021C0007B68181C00F008F87B685A1E7A60002BF6D1BD4602B080BD80B586B000AF78607A68131CDB009B1A9B000B4A9B183B613B69DB8AFB60FB687B6105E07A687B699F
:40220000101C191C00F00AF87B695A1E7A61002BF4D1BD4606B080BD046C000080B584B000AF786039600023FB600023BB607A68131CDB009B1A9B000C4A9B18BB60BB68F6
:402240009B68FB603A68131C9B009B185B001A1CFB689B18FB60BB681B7E1A1CFB68181C111C00F005F8BD4604B080BD046C000080B584B000AF786039600123FB6007E0E9
:4022800079683A68FB68081C111C1A1C00F008F8FB685A1EFA60002BF2D1BD4604B080BD80B584B000AFF860B9607A60BB68DBB2062B04D0FA687B68D31800221A71FB6852
:4022C0007A685200D15AFA687B685B00D3180A1C5A80FA687B68D318083300221A70BD4604B080BD80B586B000AFF860B9607A6001237B610BE07B68DBB2062B07D0FB68BE
:40230000BA6879694900895A7A695200D1527B695A1E7A61002BEED1BD4606B080BDC04680B500AF044B1B78DBB21A1C80231340181CBD4680BDC0462403002080B584B04F
:4023400000AF7860154B9A6880235B02134002D01123FB6016E07B68002B11D17B685B090E4A02339B00D3185A687B681F210B40DA40131C0122134002D00023FB6001E060
:402380000123FB60FB68002B03D17B68181C00F029FBFB68181CBD4604B080BD1C03002080B582B000AF00237B60084B9A6880235B02134002D011237B6001E000F0CCFB12
:4023C0007B68181CBD4602B080BDC0461C03002080B582B000AF01235B427B60134B9B688022134002D011237B6019E000233B6013E03B68181CFFF7A1FF031C7B607B68B2
:40240000002B07D10A4B00221A70FFF7C9FF031C7B6005E03B6801333B603B68002BE8D07B68181CBD4602B080BDC0461C0300209E02002080B582B000AF00237B6000F0F1
:402440005FF800F023F97B68181CBD4602B080BD80B500AFBD4680BD80B582B000AF78608023DB05094A1A60094B7A68013A12021A60C0468023DB051B68002BFADB8023E0
:40248000DB05044A1A60BD4602B080BD400000400003004040FF008080B584B000AF78600023FB607B68002B02D00123FB6006E07B68181C552100F08DFD031CFB60FB6869
:4024C000181CBD4604B080BD80B582B000AF00237B6000233B600AE03B68181CFFF7DCFF021C7B6813437B603B6801333B603B68002BF1D07B68181CBD4602B080BDC0460E
:4025000080B582B000AF00237B6011E00B497A68131CDB009B1A9B00CB185B683B607A683B68101C191C00F00BF87B6801337B607B68002BEAD0BD4602B080BD046C0000D0
:4025400080B584B000AF786039600F23FB1800221A700E23FB1800221A700E23FB181B781B01DAB20F23FB181B781343DAB23B681A73BD4604B080BD80B582B000AF00235B
:402580007B602AE018497A68131CDB009B1A9B005A58164B1A6000233B600DE0134B19683A68131CDB009B1A9B00CB18181C00F08BFB3B6801333B600B497A68131CDB0047
:4025C0009B1A9B00CB181033DB88DBB21A1E3B689A42E3D87B6801337B607B68002BD1D0BD4602B080BDC046046C0000A002002080B582B000AF174B1B68702293431A1C9F
:40260000144B1A60144B1B7E1448191C01F0A8FE031C7B607B68124A934206D80D4B1B6820221A430B4B1A6010E07B680D4A934206D8084B1B6830221A43064B1A6005E059
:40264000044B1B6840221A43024B1A60BD4602B080BDC046B40000201C030020006CDC02001BB70000366E0180B500AF044B054A1A60054BC12252041A60BD4680BDC046F1
:40268000C0010C4000008301C4010C4080B582B000AFFFF771FF394B00221A60384B00221A60384B10221A60374B00221A60374B00221A60364B00221A60364B00221A6018
:4026C000354B00221A60354B00221A60344B1B687B607B68334A13407B607B68C022D20013437B602E4B7A681A602F4B1B687B607B688022520113437B602B4B7A681A60E7
:402700002A4B01221A602A4B1B687B607B68294A13437B60264B7A681A60274B802252041A60264B264A1A601B4B802252041A60244B254A1A60FFF797FF244B1B7E181C29
:40274000FFF78AFEFFF754FF214A224B1B6822490B431360902001F0EBFC204B01221A601F4B00221A601F4B04221A601E4BC02212031A60BD4602B080BDC046F4000C4059
:40278000B4020C40C0020C4020030C4084010C4088020C4080020C4084020C4080010C4000050240FFF0FFFF94020C40A0020C40A8020C4001000010A4020C4088010C40B4
:4027C0004111000090020C40000003011C03002000000C40B40000200010008000030C40F0010C4010030C4004020C4080B500AF064B1B78012B07D1054B1B68181C00F0B6
:4028000063FA024B00221A70BD4680BDA4020020A002002090B587B000AF78601723FC1801F08FFC031C2370184B1B683B613B697F2293433B61164B1B781A1C7B689B1802
:402840009B7A1A1C3B6913433B61104B3A691A60104B1B68FB60FB687F229343FB600E4B1B680B4A12789B185B791A1CFB681343FB60084BFA681A601723FB181B78181CC2
:4028800001F063FCBD4607B090BDC046C0010C406C6C0000C4010C406003002080B584B000AF786039603B6801229A40131C013BFB603B68102B20D17B6801335B08FA68A8
:4028C000D31AFB60144B1B7E1448191C01F048FD031CBB60BB68124A934203D8FB68023BFB600AE0BB680F4A934203D8FB68033BFB6002E0FB68043BFB607B68002B05D099
:40290000F868796801F02CFD031CFB60FB68181CBD4604B080BDC0461C030020006CDC02001BB70000366E0180B584B000AF154B1B78DBB2191C144A0B1CDB005B1A9B00F4
:40294000D3185B68BB60BB68DB7A7B600023FB60FB68052B02D0FB68062B06D1FB681B04802292041343FB6002E0FB681B04FB60FA687B68101C191C00F008F8BD4604B076
:4029800080BDC0469C020020046C000080B582B000AF78603960044B3A68511E7A680A431A60BD4602B080BD00020C4080B584B000AF78607B68DB7AFB607B681B881A1C97
:4029C000FB68181C111CFFF769FF031CBB60044BBA681204120C1A60BD4604B080BDC04614030C4080B584B000AF786019497A68131CDB009B1A9B00CB185B68FB60FFF77A
:402A0000F5FE7B68DAB2144B1A70134B1B78DBB2191C104A0B1CDB005B1A9B009A580F4B1A600F4B9B687F2293431A1C0C4B9A60094B1B78DAB20A4B9B681A43084B9A6096
:402A4000FB68181CFFF7B2FFFFF76EFFBD4604B080BDC046046C00009C020020A00200201C03002080B584B000AF7860396022497A68131CDB009B1A9B00CB185B68FB605B
:402A80003B68DAB21D4B1A701B497A68131CDB009B1A9B00CB1808331A68184B1B78DBB2191C0B1C9B005B185B00D218144B1A607B68181CFFF796FFFB68181CFFF7AAFED3
:402AC0000E4B1B78D9B20F4B1A680B1CDB005B1A9B00D2180B4B1A600A4B1B68181C00F0B7F8094B01221A70084B181C00F000FDBD4604B080BDC046046C00009D0200206E
:402B000060030020A0020020A40200205141000080B500AF0E2001F0BBF8064B01221A60302001F005FB00F017FB00F067FBBD4680BDC04680010C4080B500AF044B9B6876
:402B4000044A1A43024B9A60FFF7E2FFBD4680BD1C0300208000010080B582B000AF264B1B78DBB2191C254A0B1CDB005B1A9B00D3185B687B60224B00221A701E4B1B7891
:402B8000DBB2191C1D4A0B1CDB005B1A9B00D31808331A681A4B1B78DBB2191C0B1C9B005B185B00D218174B1A607B68181CFFF731FE114B1B78DBB2191C104A0B1CDB00D9
:402BC0005B1A9B009A580E4B1B78DBB2191C0B1CDB005B1A9B00D2180B4B1A600A4B1B68181C00F035F8094B181C00F081FCFFF7A3FFBD4602B080BD9C020020046C000083
:402C00009D02002060030020A00200208941000080B582B000AF786039600B497A68131CDB009B1A9B0059583A68131CDB009B1A9B00CA18054B1A60044B1B68181C00F060
:402C400007F8BD4602B080BD046C0000A002002090B587B000AF78607B689B7E7B617B681B7E3B610F23FC1801F06BFA031C23707B681B681B68BB603B690F229A40131C0E
:402C8000DA43BB681340BB603B6904229A40131CBA681343BB607B685B687A6852681268796907208840011CC9430A401A607B681B68BA681A600F23FB181B78181C01F087
:402CC00044FABD4607B090BD90B587B000AF78607B681B7E7B617B689B7E3B617B681B687A681268126879690F208840011CC9430A401A600F23FC1801F023FA031C237094
:402D00007B685B681B68BB603B6907229A40131CDA43BB681340BB603B6906229A40131CBA681343BB607B685B68BA681A600F23FB181B78181C01F008FA7B689B687A685A
:402D4000926812687968497E081C01218140C9430A401A60BD4607B090BDC04680B588B000AFF860B9607A600023BB61FB681B881A1C01239340013B7B617A69131C9B00B5
:402D80009B185B00181C642101F0EAFA031C01333B61BA683B69D2187B699A4203D8BA683B69D3187B61BA683B699A4203D3BA683B69D31ABB617A68BB699A4203D37A68CF
:402DC0007B699A4202D90623FB6101E00023FB61FB69181CBD4608B080BDC04680B582B000AF0E4B1B687F2213407B607B680C4A13437B60094B7A681A600A4B1B687F2269
:402E000013407B607B688022120413437B60054B7A681A60BD4602B080BDC046C0010C4000008301C4010C4080B582B000AF0A4B1B687B607B68094A13437B60064B7A68EF
:402E40001A60074B074A1A60074BC12252041A60BD4602B080BDC046A8020C4001000010C0010C4000008301C4010C4080B58AB000AFF860B9607A602723FB1840221A7063
:402E80004C4B1B78DBB2191C4B4A0B1CDB005B1A9B00D3185B68FB61BB682722BA1812781A70444B1B78DBB21A1C444B1B78DBB2101C191CFFF7D6FDFFF790FFFFF73CFEB0
:402EC0003F4B3B6202E03B6A013B3B623D4B1B78DBB2DBB25BB2002B02DA3B6A002BF2D1394B1B681B88BB61BA69FB689A420AD2BB681B782722BA181278D243D2B2134024
:402F0000DAB2BB681A702723FB182722BA18127852081A70BB681A782723FB181B781343DAB2BB681A70FB69181CFFF773FC2723FB181B78002BC1D11E4B1B78DBB2191CD6
:402F40001D4A0B1CDB005B1A9B009A581B4B1B78DBB2191C0B1CDB005B1A9B00D2181B4B1A601A4B1B68181CFFF7AEFE184B00221A70FFF759FFF969FA68BB69081C111CFB
:402F80001A1CFFF7EBFE031C7B617B681A78BB681B789A4203D2BB681A787B681A700A4B1B68BA6812785A717B69181CBD460AB080BDC0469C020020046C00009D020020AF
:402FC000666600002403002060030020A0020020A402002090B589B000AF786039600023FB6158497A68131CDB009B1A9B00CB185B68BB610C23FB1801221A70BB691B8841
:403000001A1C01239340013B7B617B693A685343181C642101F0A4F9031C7B617B68DAB2494B1A70494B181C00F062FABB690A333B61474B00221A7013E079693A690C236A
:40304000FB18081C111C1A1CFFF710FF021CFB691343FB613E4B1B78DBB20133DAB23C4B1A7038497A68131CDB009B1A9B00CB1818335A78364B1B78DBB29A42DDD80C23E5
:40308000FB181B7801335B08DAB23B691A70304B00221A7040E02B497A68131CDB009B1A9B00CB1808331A68294B1B78DBB2191C0B1C9B005B185B00D218264B1A60254BE4
:4030C0001B685A793B691B789A421AD3214B1A68204B1B6859793B691B78CB1ADBB253711C4B1C681B4B1B685B791A1C3B6853436333181C642101F033F9031CDBB263715C
:4031000003E0144B1B6800225A71114B1B78DBB20133DAB20E4B1A700A497A68131CDB009B1A9B00CB1818335A78094B1B78DBB29A42B0D8064B00221A70FB69181CBD46BF
:4031400009B090BD046C00009C020020514100009D0200206003002080B582B000AF1D4B1D4A1A601D4B00221A601D4B06221A601C4B01221A601C4B802252041A601B4B97
:4031800001221A601A4B832252001A60194B04221A60194B03221A60F0239B007B6002E07B68013B7B60124B1B680422134002D17B68002BF4D17B68002B02D10E4B0822CD
:4031C0001A60044B00221A60044B00221A60BD4602B080BDB0020C4001010100B4020C4088020C4080020C4084020C40F0010C40F0000C40F8000C4040030C4080B582B061
:4032000000AF1A4B832252001A600E2000F054FD0E2000F029FD164B00221A60154B00221A60154B00221A60144B50221A60144B01221A60134B00221A60134B02221A6024
:40324000F0239B007B6002E07B68013B7B600F4B1B680722134002D07B68002BF4D10C4B0C4A1A60BD4602B080BDC046F0000C4088020C4080020C4084020C40F0010C40DD
:403280008C010C4080010C40F8000C4000000C4040030C400103000080B500AF0B4B802252021A600A4B0C221A60012000F0A2F8084B181C00F066F8074B181C00F070F840
:4032C000044B181C00F050F8BD4680BD000101402401014087130000C409000090B583B000AFFC1D00F02DFF031C2370084B084A126801210A431A60FB1D1B78181C00F0DF
:4033000024FF0120182100F059F8BD4603B090BD0000014080B500AF064B1B78002B04D1FFF7BAFF034B01221A70FFF7D7FFBD4680BDC046A802002090B583B000AFFC1DFD
:4033400000F0FFFE031C2370064B064A126801218A431A60FB1D1B78181C00F0F6FEBD4603B090BD0000014080B582B000AF7860034B7A681204120C1A60BD4602B080BD65
:403380000801014080B582B000AF7860034B7A681204120C1A60BD4602B080BD1401014080B582B000AF7860034B7A681204120C1A60BD4602B080BD0C01014090B585B029
:4033C00000AF786039600F23FC1800F0BAFE031C2370074B3A68796891400A1C1A600F23FB181B78181C00F0B0FEBD4605B090BD0800014080B582B000AF7860024B7A68B2
:403400001A60BD4602B080BD3801014080B500AF00F064F8054B181C00F020F8032000F02BF800F051F8BD4680BDC0465534000080B582B000AF786000F050F87B68181C6F
:4034400000F00CF8032000F017F800F03DF8BD4602B080BD80B500AFBD4680BD80B582B000AF7860034B84217A685A50BD4602B080BDC0460000002090B585B000AF021C2F
:40348000FB1D1A700E23FB600B23FC1800F059FE031C23700A4B0A4A12680A491140FA1D1078FA689040021C0A431A600B23FB181B78181C00F049FEBD4605B090BDC046DC
:4034C00010E400E0FF3FFFFF80B500AF024B802292021A60BD4680BD00E100E080B500AF024B802292021A60BD4680BD80E100E080B582B000AF786000F04AF87B68181C41
:4035000000F008F8032000F011F800F037F8BD4602B080BD80B582B000AF7860024B7A689A67BD4602B080BD0000002090B585B000AF021CFB1D1A701623FB600B23FC187F
:4035400000F0FFFD031C23700A4B0A4A12680A491140FA1D1078FA689040021C0A431A600B23FB181B78181C00F0EFFDBD4605B090BDC0460CE400E0FFFF3FFF80B500AF51
:40358000024B8022D2011A60BD4680BD00E100E080B500AF024B8022D2011A60BD4680BD80E100E090B5A9B000AF7860396000239822BA18136000239422BA1813607B684C
:4035C000FF2B00D99EE03B68002B00D19AE00C23FB1808331A1C3B68101C191C802201F0E1FD0C23FB184D4A1A600C23FB187F225A604B4B0C22BA181A604A4B4A4A1A6066
:40360000C046474B1B681B0F1A07F0231B069A4204D1434B1B68FF2213400BE0404B1B681B0F1A07A0231B069A4202D03C4B1B6800E000239822BA1813609823FB181B6887
:40364000002B5ED19F23FC1800F07BFD031C237000F0AAF8031C9422BA1813609423FB181B68002B05D100F0DBF8031C9822BA1813609823FB181B68002B30D10C23FB1866
:403680002A4A1A600C23FB181A687B681B041A430C23FB181A60224B0C22BA181A60214B234A1A60C0461E4B1B681B0F1A07F0231B069A4204D11A4B1B68FF2213400BE09A
:4036C000174B1B681B0F1A07A0231B069A4202D0134B1B6800E000239822BA1813609423FB181B68002B05D100F0CEF8031C9422BA1813609F23FB181B78181C00F025FD59
:4037000004E003E004239822BA1813609823FB181B68181CBD4629B090BDC046B6D70000080010400400104004000080B6D800000500008090B585B000AF78600F23FC18D1
:4037400000F0FFFC031C23707B68102B06D8154B144A126803218A431A601AE07B68202B08D8104B0F4A126803218A4301210A431A600EE07B68302B08D80A4B094A1268CF
:4037800003218A4302210A431A6002E0002000F0A7FA0F23FB181B78181C00F0D6FCBD4605B090BD3000104080B584B000AF0023FB603B1D154A1A60154A3B1D5A60154BB0
:4037C0003A1D1A60144B154A1A60C046114B1B681B0F1A07F0231B069A4204D10D4B1B68FF2213400BE00B4B1B681B0F1A07A0231B069A4202D0074B1B6800E00023FB6088
:40380000FB68181CBD4604B080BDC046B6E90000AC02002008001040040010401600008080B582B000AF00237B60134B134A1A60134B144A1A60C0460F4B1B681B0F1A079B
:40384000F0231B069A4204D10B4B1B68FF2213400BE0094B1B681B0F1A07A0231B069A4202D0054B1B6800E000237B607B68181CBD4602B080BDC04608001040B6E80000C1
:40388000040010401500008080B584B000AF0023FB603B1D154A1A60154A3B1D5A60154B3A1D1A60144B154A1A60C046114B1B681B0F1A07F0231B069A4204D10D4B1B688E
:4038C000FF2213400BE00B4B1B681B0F1A07A0231B069A4202D0074B1B6800E00023FB60FB68181CBD4604B080BDC046B6EA0000AC0200200800104004001040170000803E
:4039000090B587B000AF00233B6100F045FA031E69D00F23FC1800F014FC031C2370334B1B68072213409B0018331A1C304B1B689B08191C03230B40DA40131CBB602D4B60
:403940001B682D4A13407B61BB682C4A53438022D20194466344DB0B013B5B055B0D7A6913437B617B69A022520313437B61BB68192B05D87B69FF22920513437B6116E0C5
:40398000BB681F4A944663441B78DBB2191CBB681A3B1C4AD35CCB183B613B69FF2B00D9FF233B613B699B057A6913437B61114B7A691A60144B1B687B603020FFF7BAFEE7
:4039C000124B124A12688021C9050A431A60142000F090F90C4B7A681A600F23FB181B78181C00F0B2FBBD4607B090BD080F0340280003400800064000F800C040420F00F2
:403A0000CDF1FF0F706C0000300010400000064080B500AF034B034A126803490A401A60BD4680BD00000640FFFFFFBF80B500AF054B1A688023DB05134001D0012300E06C
:403A40000023181CBD4680BD0000064090B585B000AF78600023FB607B68182B11D07B681C2B0ED07B68202B0BD07B68242B08D07B68282B05D07B682C2B02D07B68302B73
:403A800065D10B23FC1800F05CFB031C2370FFF7CDFF031E03D00123FB60FFF7B9FF2F4B2E4A126807218A431A607B682C4A9A180A23FB1812781A702A4B0A22BA1812787B
:403AC0001A60294B284A126807218A431A60274B264A12687F218A43111C7A682448844662441278D2B2101C7F2202400A431A60322000F01DFB7B68182B1CD9174B174AAD
:403B0000126807218A43111C7A681C3A9208072002400A431A60322000F00AFB0F4B0F4A126807218A43111C7A68183A9208072002400A431A60FB68012B01D1FFF7E0FE1E
:403B40000B23FB181B78181C00F0FFFA02E0002000F0C6F8BD4605B090BDC046080F0340CDF1FF0F0C0F0340100F0340180F0340B4F1FF0F80B584B000AF021C3960FB1DAF
:403B80001A7080239B05FB60FB1D1B78182B02D9002000F0A5F8FB1D1B7810339B00FA68D3181B68BB60FB1D1B7810339B00FA68D3183A681A60BB68181CBD4604B080BDB6
:403BC00090B587B000AF021CFB1D1A70BB1D0A1C1A70BB1D1B78032B02D9002000F080F8FB1D1B78182B02D9002000F079F8FB1D1B7803221340DB0006337B611323FC18AF
:403C000000F09FFA031C2370FB1D1B789B08DBB29B00144A944663441B68FB607B6903229A40131CDA43FB681340FB60BB1D1A787B699A40131CFA681343FB60FB1D1B78C1
:403C40009B08DBB29B00074A94466344FA681A601323FB181B78181C00F077FABD4607B090BDC04600E400E080B582B000AF021CFB1D1A70054BFA1D12781F210A40012116
:403C800091400A1C1A60BD4602B080BD00E100E080B582B000AF021CFB1D1A70054BFA1D12781F210A40012191400A1C1A60BD4602B080BD80E100E080B582B000AF021C95
:403CC000FB1D1A70054BFA1D12781F210A40012191400A1C1A60BD4602B080BD80E200E080B582B000AF021CFB1D1A7001BEBD4602B080BD80B582B000AF786009E00C4B2B
:403D00001B68181C00F014FA7B680A4A944663447B607A6880231B029A42F0D8064B1B687A685343181C00F003FABD4602B080BDC40000200080FFFFBC00002080B582B0F1
:403D400000AF021CBB1D1A80BB1D1B88044A12785343181C00F0ECF9BD4602B080BDC046C000002090B583B000AFFC1D00F0E9F9031C2370074B074A126804218A431A60ED
:403D800030BFFB1D1B78181C00F0DFF9BD4603B090BDC04610ED00E080B500AF044B1B68002B01DA012300E00023181CBD4680BD0000064080B500AF024B034A1A60BD46EF
:403DC00080BDC046380003406588EDAC80B582B000AF054B1B689B0F9B077B607B68181CBD4602B080BDC0460C02064090B585B000AF7860FFF7EAFF021E7B689A4227D056
:403E00001D4B1D4A126803218A431A601B4B1B689B0F9B0701D17C2301E086235B00181CFFF78CFF0F23FC1800F08BF9031C2370124B124A1268920091087A68920F9207A8
:403E40000A431A600F23FB181B78181C00F07DF9094B094A126803218A43111C074A1268920F920701D1022200E001220A431A60BD4605B090BDC046140206400C0206404A
:403E800080B500AF00F008F8BD4680BD80B500AF00F0C6F8BD4680BD80B500AF074B1B68012B06D0064B181C00F02AF8034B01221A60012000F066F8BD4680BDC40200204A
:403EC0003C01002080B584B000AF786039600023FB600DE0FB68DB007A68D3181B68FA68D20079688A1852681A60FB680133FB60FA683B689A42EDD3BD4604B080BDC0466B
:403F000080B582B000AF786000F02EF87B689B7A191C7B681B68124A101C1A1C00F044F87B689B7A0F4A944663449B00191C7B689B7A1A1C131C9B079B1A9B004033081C78
:403F400000211A1C00F050F87B685A687B68DB7A101C191CFFF7B6FFBD4602B080BDC04680033440E0000D1080B500AF044B044A1268802109060A431A60BD4680BDC04625
:403F80000000344080B582B000AF7860054B054A1268520051087A68D2070A431A60BD4602B080BD7803344080B586B000AFF860B9607A60BB68102B13D800237B610CE0DF
:403FC0007B699B00FA68D3187A69520079688A1812881A607B6901337B617A69BB689A42EED3BD4606B080BD80B586B000AFF860B9607A607B689B087B6108E07B69013BCD
:404000007B617B699B00FA68D318BA681A607B69002BF3D1FB68181CBD4606B080BDC04680B500AF074B1B68012B06D0064B181C00F02AF8034B01221A60012000F066F82A
:40404000BD4680BDC8020020BC01002080B584B000AF786039600023FB600DE0FB68DB007A68D3181B68FA68D20079688A1852681A60FB680133FB60FA683B689A42EDD339
:40408000BD4604B080BDC04680B582B000AF786000F02EF87B689B7A191C7B681B68124A101C1A1CFFF780FF7B689B7A0F4A944663449B00191C7B689B7A1A1C131C9B079B
:4040C0009B1A9B004033081C00211A1CFFF78CFF7B685A687B68DB7A101C191CFFF7B6FFBD4602B080BDC04680023440A0000D1080B500AF044B044A1268802109060A4375
:404100001A60BD4680BDC0460000344080B582B000AF7860054B054A1268520051087A68D2070A431A60BD4602B080BD780234400230800803D001300238FCD1C046C04666
:404140007047EFF3108072B6704780F31088704780B500AF094B832252001A6000F042F8074BDB8801339AB2054BDA80044B9B68044A1A40024B9A60BD4680BDF0000C4006
:404180001C0300207FFFFEFF80B582B000AF114B1B78DBB2191C104A0B1CDB005B1A9B009A580E4B1B78DBB2191C0B1CDB005B1A9B00D3187B600A4B832252001A6000F0E4
:4041C00011F87B68181CFEF77FFD00F049F8BD4602B080BD9C020020046C00009D020020F0000C4080B584B000AF184B1B78DBB2191C174A0B1CDB005B1A9B00D3185B68F1
:40420000FB60144B1B681B041B0CBB60FB681B881A1C01239340013B7B60BA687B689A4208D20D4B1B680D4A1278B96889B25200D15207E0084B1B68084A1278796889B299
:404240005200D152BD4604B080BDC0469C020020046C0000D0000C40600300206C6C000080B582B000AF374B1B78DBB2191C364A0B1CDB005B1A9B00D3185B687B60314BA6
:404280001B78DBB2191C304A0B1CDB005B1A9B00D3181033DB88DBB2013B2C4A1278D2B293422FD9294B1B78DBB20133DAB2274B1A70244B1B78DBB2191C234A0B1CDB00DF
:4042C0005B1A9B00D31808331A68204B1B78DBB2191C0B1C9B005B185B00D2181C4B1A607B68181CFEF796FA164B1B78DBB21A1C164B1B78DBB2101C191CFEF789FCFEF747
:4043000007FC1CE0114B00221A70124B9B68124A1A40104B9A60114B1B78012B02D1FEF797F80CE00B4B9B68802293431A1C094B9A60084BDB8801339AB2064BDA80BD4674
:4043400002B080BD9C020020046C00009D020020600300201C030020FFFFFEFF9E020020002243088B4274D303098B425FD3030A8B4244D3030B8B4228D3030C8B420DD3D5
:40438000FF22090212BA030C8B4202D31212090265D0030B8B4219D300E0090AC30B8B4201D3CB03C01A5241830B8B4201D38B03C01A5241430B8B4201D34B03C01A5241B8
:4043C000030B8B4201D30B03C01A5241C30A8B4201D3CB02C01A5241830A8B4201D38B02C01A5241430A8B4201D34B02C01A5241030A8B4201D30B02C01A5241CDD2C30988
:404400008B4201D3CB01C01A524183098B4201D38B01C01A524143098B4201D34B01C01A524103098B4201D30B01C01A5241C3088B4201D3CB00C01A524183088B4201D3E0
:404440008B00C01A524143088B4201D34B00C01A5241411A00D20146524110467047FFE701B5002000F0FCF802BDC0460029F7D003B5FFF775FF0EBC4243891A1847C046BE
:4044800003460B437FD4002243088B4274D303098B425FD3030A8B4244D3030B8B4228D3030C8B420DD3FF22090212BA030C8B4202D31212090265D0030B8B4219D300E04F
:4044C000090AC30B8B4201D3CB03C01A5241830B8B4201D38B03C01A5241430B8B4201D34B03C01A5241030B8B4201D30B03C01A5241C30A8B4201D3CB02C01A5241830ACC
:404500008B4201D38B02C01A5241430A8B4201D34B02C01A5241030A8B4201D30B02C01A5241CDD2C3098B4201D3CB01C01A524183098B4201D38B01C01A524143098B428C
:4045400001D34B01C01A524103098B4201D30B01C01A5241C3088B4201D3CB00C01A524183088B4201D38B00C01A524143088B4201D34B00C01A5241411A00D20146524115
:40458000104670475DE0CA0F00D04942031000D34042534000229C4603098B422DD3030A8B4212D3FC22890112BA030A8B420CD3890192118B4208D3890192118B4204D313
:4045C00089013AD0921100E08909C3098B4201D3CB01C01A524183098B4201D38B01C01A524143098B4201D34B01C01A524103098B4201D30B01C01A5241C3088B4201D30E
:40460000CB00C01A524183088B4201D38B00C01A5241D9D243088B4201D34B00C01A5241411A00D20146634652415B10104601D34042002B00D54942704763465B1000D3DF
:40464000404201B5002000F00BF802BD0029F8D003B5FFF715FF0EBC4243891A1847C0467047C0469E2110B5C905041C00F092FC002803D1201C00F0F5FB10BD9E21201C99
:40468000C90500F071FA00F0EDFB80231B069C466044F2E7F0B556464D465F464446F0B443024500C70F83B08A465C0A2E0EB94641D0FF2E26D080231B042343DC000023D0
:4046C00098469B467F3E53465B025D0A53465A00DB0F120E9A4639D0FF2A33D080231B042B43DD0000237F3A5146B21A46467940081C01921E430F2E00D976E07E4AB6003C
:404700009659B746002C30D108239846063B9B46D9E780230021DB03FF245B02E4055B0AC90723430B43181C03B03CBC90469946A246AB46F0BD002C28D104239846033BFF
:404740009B46C0E7002D1FD1022302E0002D11D10123B21A50464646784001921E430F2E27D86649B60089598F460C239846093B9B46A8E7281C00F017FC7622431F5242D2
:404780009D40121A0023AFE70323ADE7201C00F00BFC431F9C4076235B421E1A002398469B4690E70025D1469B465B464846022B6FD10121FF2401400023AEE77E23019A12
:4047C0005B429B1A1B2B6DDD01214B46194000240023A2E78023DB031C4249D18023DB0323435B025B0A391C96E763016D01AB4237D389461A2001215B1B01241E1C490075
:404800005B00002E01DBAB4201D35B1B214301380028F3D1581E83410B431D1C019C7F34002CCBDD6B0704D00F232B40042B00D004352B0104D5019A314B8032141C1D40F8
:40484000FE2C07DD4B460121FF241940002364E7251CAAE701214A46AB015B0AE4B211405BE7019A8946013A01921B200021C4E71D4207D023435B025B0A391C4CE7002585
:404880006302ABD58023DB032B435B025B0A514642E7032B25D0012BC0D101210024014000233AE7291CD9402B1C019A9E3293405D1EAB410B435A0704D00F221A40042A71
:4048C00000D004335A0105D54B46012101241940002322E701214A469B015B0A114000241BE7802301214A46DB032B435B020A405B0A111C10E7C046886C0000C86C0000F6
:40490000FFFFFFF7F0B55F4656464D464446F0B445024600C40F83B00F1C6D0A360EA34645D0FF2E25D080231B041D4300239A46ED007F3E01937B025B0A98467800FB0F9E
:40494000000E994640D0FF2838D0802342461B041343DB00984600237F384A46019F30186240411C1F430F2F69D87D4EBF00F659B746002D45D108230193063B9A46DAE7C6
:4049800093465346022B2FD15B46012400251C40FF236D02DB056D0AE4071D432543281C03B03CBC90469946A246AB46F0BD002D2CD104230193033B9A46BCE743465A4281
:4049C00053410322D31AC8E742460123002AC4D0404600F0E9FA4246431F9A4076235B42181A90460023B8E7032B00D1ADE0012B00D08CE05B4654461C40E4B20023002572
:404A0000C7E70C230193093B9A4694E7281C00F0CBFA7626431F9D4000237642361A01939A4688E780250024ED03FF23B1E74546CB469A46A5E7454693469A46A1E74346B4
:404A40002C041B0C9C46230C444626041C1C360C2F0C7443351C66467D4373437743EB18260C9E19B54203D980235B029C46674424043304240C1B199D016C1EA5419B0EBB
:404A8000360C2B43BD19AD011D432B0104D5012368081D400543081C031C7F33002B2CDD690704D00F212940042900D00435290103D52C4B1D40031C8033FE2B17DD0124FE
:404AC000FF231440002564E78020C003054209D04346034206D1454605436D026D0A4C46FF2356E705436D026D0AFF2351E70124AD016D0ADBB214404BE77E235B421B1AA6
:404B00001B2B07DD012400231440002541E7081C5A46C1E79E30291C8540D940681E85410D436B0704D00F232B40042B00D004356B0104D5012401231440002529E7012412
:404B4000AD016D0A1440002323E78023DB031D4301245B466D0223401C1C6D0AFF2318E7086D0000FFFFFFF7F8B54A00430244004D02C00F240E061C9B09120EC90FAD0999
:404B8000FF2A00D175E001277940884250D0A01A002800DC8FE0002A1ED1002D00D075E05A0704D00F221A40042A00D0043380220120D2041A403040002A32D00134FF2C5F
:404BC00000D184E09B015B0AE4B25B02E4055B0A2343C0071843F8BDFF2CE1D08022D20415431B287ADD01255B1B5A015DD59B019F09381C00F0D8F905388740844269DC2A
:404C0000001B1F243A1C431C201ADA408740131C7C1EA74100243B43C2E7131E45D100230020DB08FF2C28D05B025B0AE4B2CCE7A11A00295BDD002A2ED0FF2CB0D080221E
:404C4000D20415431B2974DC2F1C2022CF40511A8D40691E8D413D435B195A0125D50134FF2C74D001217E4A194013405B080B4396E7002D00D088E785E7002B27D08022FC
:404C8000D20313435B025B0AFF249EE701380028AAD0FF2CA5D183E7002D00D180E701390029D9D0FF2CCDD17AE75A0700D079E701203040B5E7002825D1621CD2B2012AD5
:404CC00055DD5F1B7A012DD5EF1A0E1C91E7FF2400237AE7624B241A3B4061E7291C2022C140101A8540681E85410D437CE7002946D1621CD1B201292BDDFF2A26D0EB1880
:404D00005B08141C4CE7002C15D0FF2A1AD08024E404404223431B284DDD0123EB1A141C0E1C62E7002F00D063E700230020002477E7012590E7002B39D0C0430028EDD015
:404D4000FF2AE8D12B1CFF240E1C29E7FF24002367E7002C5AD1002B7FD0002D00D11FE75B195A01A1D53E4A0134134018E7002C15D1002B2FD1002D5ED02B1C0E1C0FE7F1
:404D8000002C21D1002B54D0C943002904D0FF2A4CD01B2958DD01235B19141C5DE7002B23D1002D4BD02B1C0E1CFF24F8E62B1C141C0E1CF4E61E1C2024C640201A8340DE
:404DC000581E83413343A9E7FF2A2FD08024E40449422343DDE7002D00D1E1E65A1B500100D41AE7EB1A0E1CDAE6FF24002D00D1D6E68022DB08D203134204D0ED0815420F
:404E000001D12B1C0E1CDB00FF24C9E6002B0DD0FF24002D00D1C3E68022DB08D2031342F1D0ED081542EED12B1CECE72B1CFF24B6E62B1C141CB3E6231C0020F1E680232C
:404E400000209B04FF24ECE61F1C2024CF40611A8B40591E8B413B439EE72B1CA0E6C046FFFFFFFB4202510A4200C30F120E00207E2A0DDD9D2A0CDC802000040143952ABE
:404E80000ADC9620821AD1400A1C58424240D0187047034A9818FBE7963A91400A1CF4E7FFFFFF7F70B5041E39D0C50F00D04442201C00F079F89E23261C1B1A962B07DCD8
:404EC000082801DD083884406402640AD8B21EE0992B0ADD0522211C121AD1400A1C011C1B318E40711E8E411643052801DD421F96400F4C3440720704D00F221640042ECD
:404F000000D0043462010ED4A401640AD8B26402C005640AED0704432C43201C70BD002500200024F3E7024B1C409F231B1AEBE7FFFFFFFB8446081C6146FFE71FB500F0EF
:404F4000C5F8002801D40021C8421FBD10B500F049F84042013010BD10B500F0B7F8002801DB002010BD012010BDC04610B500F0ADF8002801DD002010BD012010BDC04670
:404F800010B500F059F8002801DC002010BD012010BDC04610B500F04FF8002801DA002010BD012010BDC0461C2101231B04984201D3000C10391B0A984201D3000A083984
:404FC0001B09984201D30009043902A2105C40187047C04604030202010101010000000000000000430270B542004C005D0AC30F4802120E460A240EC90FFF2A05D0FF2C47
:4050000008D00120A2420BD070BD0120002DFBD1FF2CF6D10120002EF6D10120A242F3D1B542F1D18B4205D0002AEDD1281C431E9841E9E70020E7E7F0B543024D024A009E
:4050400044005E0A240EC30F6D0A120EC90FFF2C0DD0FF2A31D0002C0DD177427741002A23D1002D21D10020002F0BD107E0002E28D1FF2A21D0002A05D08B4207D0584297
:4050800001231843F0BD002DF9D08B42F7D19442F5DC04DBAE42F2D80020AE42F2D25842434101205B421843ECE7002FE5D048424141012049420843E4E7002D02D1002C3D
:4050C000CBD0DAE702204042DCE7C0464302F0B542004C005E0AC30F4802120E450A240EC90FFF2A0FD0FF2C1AD0002A10D177427741002C29D0002F17D048424141012071
:40510000494208430BE00220002E08D1FF2C07D0002C0AD1002D08D1584201231843F0BD0220002DFBD1002AE1D08B42F4D1A242F2DC04DBAE42EFD80020AE42EFD2584275
:40514000434101205B421843E9E7002DD3D10020002FE4D1E0E7C0460E4B70B500251E1C0D4CE41AA410A54204D0AB00F35898470135F8E701F0E8FD084B00251E1C084CB7
:40518000E41AA410A54204D0AB00F35898470135F8E770BD546D0000546D0000546D00005C6D0000002310B5934203D0CC5CC4540133F9E710BD031C8218934202D01970C5
:4051C0000133FAE7704700000000000034660600C75A0600704F06002F44060004390600EF2D0600F022060006180600310D060072020600C7F7050031ED0500AFE2050003
:4052000042D80500E9CD0500A4C3050073B9050056AF05004CA50500559B050072910500A2870500E57D05003B740500A36A05001E610500AB5705004A4E0500FB44050033
:40524000BE3B0500933205007A290500722005007B170500950E0500C1050500FDFC04004AF40400A7EB040016E3040094DA040023D20400C1C9040070C104002FB9040031
:40528000FDB00400DBA80400C8A00400C4980400D0900400EB880400158104004E79040095710400EB6904004F620400C25A040043530400D24B0400704404001B3D0400A4
:4052C000D43504009A2E04006F27040050200400401904003C120400450B04005C0404007FFD0300B0F60300EDEF030037E903008DE20300F0DB03005FD50300DACE030014
:4053000062C80300F5C1030095BB030040B50300F7AE0300BAA8030089A20300639C03004896030039900300358A03003C8403004E7E03006B78030093720300C66C0300DB
:40534000036703004B6103009E5B0300FB55030062500300D44A030050450300D63F0300663A030001350300A52F0300532A03000A250300CC1F0300971A03006B150300B2
:4053800049100300300B0300210603001B0103001EFC02002AF702003FF202005DED020084E80200B4E30200EDDE02002EDA020078D50200CAD0020025CC020088C702003F
:4053C000F4C2020068BE0200E4B9020069B50200F5B0020089AC020026A80200CAA30200779F02002B9B0200E6960200AA920200758E0200478A020021860200038202004D
:40540000EC7D0200DC790200D4750200D2710200D86D0200E5690200FA65020015620200375E0200605A02008F560200C6520200034F0200474B020092470200E34302006A
:405440003B4002009A3C0200FE38020069350200DB310200532E0200D12A020055270200DF23020070200200071D0200A319020046160200EE1202009D0F0200510C02000C
:405480000B090200CB050200900202005BFF01002CFC010003F90100DFF50100C0F20100A7EF010093EC010085E901007CE6010079E301007AE0010081DD01008DDA0100FF
:4054C0009ED70100B5D40100D0D10100F0CE010016CC010040C901006FC60100A4C30100DDC001001ABE01005DBB0100A4B80100F1B5010041B3010097B00100F1AD010050
:405500004FAB0100B2A801001AA6010086A30100F7A001006B9E0100E59B010062990100E49601006B940100F5910100848F0100178D0100AE8A010049880100E8850100D7
:405540008C83010033810100DE7E01008E7C0100417A0100F8770100B47501007373010035710100FC6E0100C66C0100956A0100676801003C66010016640100F26101003A
:40558000D35F0100B75D01009F5B01008A590100795701006B550100615301005A510100574F0100574D01005A4B0100614901006B47010078450100894301009D41010017
:4055C000B43F0100CE3D0100EC3B01000C3A0100303801005736010081340100AE320100DE300100112F0100472D0100802B0100BC290100FB2701003D2601008224010029
:40560000CA22010014210100621F0100B21D0100051C01005B1A0100B31801000F1701006D150100CD1301003112010097100100000F01006B0D0100D90B0100490A010058
:40564000BC08010032070100AA05010025040100A202010022010100A4FF000029FE0000B0FC000039FB0000C5F9000053F80000E4F6000077F500000CF40000A4F20000F9
:405680003EF10000DAEF000078EE000019ED0000BCEB000061EA000008E90000B2E700005DE600000BE50000BBE300006DE2000022E10000D8DF000090DE00004BDD00009A
:4056C00008DC0000C6DA000087D9000049D800000ED70000D5D500009DD4000068D3000034D2000003D10000D3CF0000A6CE00007ACD000050CC000028CB000002CA000058
:40570000DDC80000BBC700009AC600007BC500005EC4000042C3000029C2000011C10000FBBF0000E7BE0000D4BD0000C3BC0000B4BB0000A6BA00009AB9000090B80000E5
:4057400088B7000081B600007BB5000078B4000076B3000075B2000076B1000079B000007DAF000083AE00008AAD000093AC00009EAB0000AAAA0000B7A90000C6A8000079
:40578000D6A70000E8A60000FCA5000011A5000027A400003EA3000058A2000072A100008EA00000AB9F0000CA9E0000EA9D00000B9D00002E9C0000529B0000789A0000F6
:4057C0009F990000C7980000F09700001B9700004796000074950000A3940000D393000004930000379200006A9100009F900000D58F00000D8F0000458E00007F8D0000ED
:40580000BA8C0000F68B0000338B0000728A0000B1890000F28800003488000077870000BC86000001860000488500008F840000D8830000228300006D820000B9810000A7
:405840000681000054800000A37F0000F37E0000457E0000977D0000EA7C00003F7C0000947B0000EB7A0000427A00009B790000F47800004F780000AA770000067700002D
:4058800064760000C27500002175000082740000E373000045730000A87200000C72000071710000D77000003E700000A56F00000E6F0000776E0000E26D00004D6D00004F
:4058C000B96C0000266C0000946B0000026B0000726A0000E269000054690000C668000038680000AC67000021670000966600000C66000083650000FB64000073640000AC
:40590000ED63000067630000E26200005D620000DA61000057610000D560000054600000D35F0000545F0000D45E0000565E0000D95D00005C5D0000E05C0000645C0000B8
:40594000EA5B0000705B0000F65A00007E5A0000065A00008F59000018590000A25800002D580000B957000045570000D25600005F560000ED5500007C5500000C550000BA
:405980009C5400002D540000BE53000050530000E3520000765200000A5200009E51000033510000C950000060500000F64F00008E4F0000264F0000BF4E0000584E0000E3
:4059C000F24D00008D4D0000284D0000C34C00005F4C0000FC4B0000994B0000374B0000D64A0000754A0000144A0000B449000055490000F6480000984800003A4800003A
:405A0000DD4700008047000024470000C84600006D46000012460000B84500005E45000005450000AD44000054440000FD430000A64300004F430000F9420000A3420000A9
:405A40004E420000F9410000A541000051410000FE400000AB4000005840000006400000B53F0000643F0000133F0000C33E0000733E0000243E0000D53D0000873D00000A
:405A8000393D0000EB3C00009E3C0000513C0000053C0000B93B00006E3B0000233B0000D83A00008E3A0000443A0000FB390000B23900006939000021390000D938000022
:405AC000923800004B38000004380000BE3700007837000033370000EE360000A93600006436000021360000DD3500009A3500005735000014350000D2340000913400009A
:405B00004F3400000E340000CD3300008D3300004D3300000D330000CE3200008F3200005032000012320000D431000097310000593100001C310000E0300000A330000012
:405B4000673000002C300000F12F0000B62F00007B2F0000402F0000062F0000CD2E0000932E00005A2E0000212E0000E92D0000B12D0000792D0000412D00000A2D00000D
:405B8000D32C00009C2C0000652C00002F2C0000F92B0000C42B00008F2B00005A2B0000252B0000F02A0000BC2A0000882A0000552A0000212A0000EE290000BC29000018
:405BC000892900005729000025290000F3280000C2280000902800005F2800002F280000FE270000CE2700009E2700006F2700003F27000010270000E1260000B226000099
:405C0000842600005626000028260000FA250000CD2500009F250000722500004625000019250000ED240000C124000095240000692400003E24000013240000E8230000FB
:405C4000BD23000093230000692300003F23000015230000EB220000C22200009922000070220000472200001E220000F6210000CE210000A62100007E210000572100009D
:405C80003021000009210000E2200000BB200000952000006E2000004820000022200000FD1F0000D71F0000B21F00008D1F0000681F0000431F00001E1F0000FA1E0000D2
:405CC000D61E0000B21E00008E1E00006B1E0000471E0000241E0000011E0000DE1D0000BB1D0000991D0000761D0000541D0000321D0000101D0000EE1C0000CD1C0000E9
:405D0000AC1C00008A1C0000691C0000491C0000281C0000071C0000E71B0000C71B0000A71B0000871B0000671B0000481B0000291B0000091B0000EA1A0000CB1A000026
:405D4000AD1A00008E1A0000701A0000511A0000331A0000151A0000F7190000DA190000BC1900009F1900008219000065190000481900002B1900000E190000F2180000C4
:405D8000D5180000B91800009D18000081180000651800004A1800002E18000013180000F8170000DC170000C1170000A71700008C17000071170000571700003D17000002
:405DC0002217000008170000EE160000D5160000BB160000A1160000881600006F160000551600003C160000241600000B160000F2150000D9150000C1150000A915000010
:405E000091150000781500006115000049150000311500001915000002150000EA140000D3140000BC140000A51400008E14000077140000611400004A140000341400001A
:405E40001D14000007140000F1130000DB130000C5130000AF13000099130000841300006E13000059130000431300002E1300001913000004130000EF120000DA12000053
:405E8000C6120000B11200009D1200008812000074120000601200004C120000381200002412000010120000FC110000E9110000D5110000C2110000AE1100009B110000DB
:405EC0008811000075110000621100004F1100003C110000291100001711000004110000F2100000E0100000CD100000BB100000A9100000971000008510000073100000DA
:405F000062100000501000003E1000002D1000001B1000000A100000F90F0000E80F0000D70F0000C60F0000B50F0000A40F0000930F0000820F0000720F0000610F00006A
:405F4000510F0000400F0000300F0000200F0000100F0000000F0000F00E0000E00E0000D00E0000C00E0000B10E0000A10E0000910E0000820E0000730E0000630E0000AF
:405F8000540E0000450E0000360E0000270E0000180E0000090E0000FA0D0000EB0D0000DC0D0000CE0D0000BF0D0000B10D0000A20D0000940D0000860D0000780D0000C1
:405FC000690D00005B0D00004D0D00003F0D0000310D0000240D0000160D0000080D0000FA0C0000ED0C0000DF0C0000D20C0000C50C0000B70C0000AA0C00009D0C0000BB
:40600000900C0000830C0000760C0000690C00005C0C00004F0C0000420C0000350C0000290C00001C0C00000F0C0000030C0000F70B0000EA0B0000DE0B0000D20B0000A8
:40604000C50B0000B90B0000AD0B0000A10B0000950B0000890B00007D0B0000710B0000660B00005A0B00004E0B0000430B0000370B00002C0B0000200B0000150B0000AF
:40608000090B0000FE0A0000F30A0000E80A0000DC0A0000D10A0000C60A0000BB0A0000B00A0000A60A00009B0A0000900A0000850A00007A0A0000700A0000650A0000DA
:4060C0005B0A0000500A0000460A00003B0A0000310A0000270A00001C0A0000120A0000080A0000FE090000F4090000EA090000E0090000D6090000CC090000C20900002D
:40610000B8090000AE090000A40900009B09000091090000870900007E090000740900006B09000061090000580900004F090000450900003C090000330900002A090000CF
:4061400021090000170900000E09000005090000FC080000F3080000EA080000E2080000D9080000D0080000C7080000BF080000B6080000AD080000A50800009C080000C2
:40618000940800008B080000830800007A0800007208000069080000610800005908000051080000480800004008000038080000300800002808000020080000180800000D
:4061C000100800000808000000080000F8070000F1070000E9070000E1070000D9070000D2070000CA070000C2070000BB070000B3070000AC070000A40700009D070000CF
:40620000950700008E070000870700007F07000078070000710700006A070000620700005B070000540700004D070000460700003F07000038070000310700002A070000FC
:40624000230700001C070000150700000F0700000807000001070000FA060000F4060000ED060000E6060000E0060000D9060000D2060000CC060000C5060000BF060000B0
:40628000B8060000B2060000AC060000A50600009F06000098060000920600008C060000860600007F06000079060000730600006D06000067060000610600005B060000ED
:4062C000550600004F06000049060000430600003D06000037060000310600002B060000250600001F0600001A060000140600000E0600000806000003060000FD050000B7
:40630000F7050000F2050000EC050000E7050000E1050000DC050000D6050000D1050000CB050000C6050000C0050000BB050000B6050000B0050000AB050000A60500002A
:40634000A00500009B05000096050000910500008B05000086050000810500007C05000077050000720500006D05000068050000630500005E050000590500005405000031
:406380004F0500004A05000045050000400500003B05000036050000320500002D05000028050000230500001F0500001A05000015050000100500000C05000007050000E3
:4063C00003050000FE040000F9040000F5040000F0040000EC040000E7040000E3040000DE040000DA040000D5040000D1040000CD040000C8040000C4040000BF04000051
:40640000BB040000B7040000B3040000AE040000AA040000A6040000A20400009D0400009904000095040000910400008D0400008904000084040000800400007C04000065
:406440007804000074040000700400006C0400006804000064040000600400005C0400005804000054040000510400004D0400004904000045040000410400003D04000036
:406480003904000036040000320400002E0400002A04000027040000230400001F0400001C0400001804000014040000110400000D040000090400000604000002040000C3
:4064C000FF030000FB030000F8030000F4030000F1030000ED030000EA030000E6030000E3030000DF030000DC030000D8030000D5030000D2030000CE030000CB03000022
:40650000C7030000C4030000C1030000BE030000BA030000B7030000B4030000B0030000AD030000AA030000A7030000A4030000A00300009D0300009A030000970300003C
:4065400094030000910300008D0300008A0300008703000084030000810300007E0300007B0300007803000075030000720300006F0300006C030000690300006603000021
:4065800063030000600300005D0300005A0300005703000054030000520300004F0300004C030000490300004603000043030000400300003E0300003B03000038030000D6
:4065C0003503000033030000300300002D0300002A0300002803000025030000220300001F0300001D0300001A030000170300001503000012030000100300000D0300005C
:406600000A03000008030000050300000303000000030000FD020000FB020000F8020000F6020000F3020000F1020000EE020000EC020000E9020000E7020000E4020000C3
:40664000E2020000DF020000DD020000DB020000D8020000D6020000D3020000D1020000CF020000CC020000CA020000C8020000C5020000C3020000C1020000BE020000FB
:40668000BC020000BA020000B7020000B5020000B3020000B1020000AE020000AC020000AA020000A8020000A5020000A3020000A10200009F0200009D0200009A02000009
:4066C00098020000960200009402000092020000900200008D0200008B02000089020000870200008502000083020000810200007F0200007D0200007B02000079020000F5
:40670000760200007402000072020000700200006E0200006C0200006A02000068020000660200006402000062020000600200005E0200005D0200005B02000059020000C6
:40674000570200005502000053020000510200004F0200004D0200004B0200004902000048020000460200004402000042020000400200003E0200003C0200003B02000070
:406780003902000037020000350200003302000032020000300200002E0200002C0200002B0200002902000027020000250200002402000022020000200200001E02000001
:4067C0001D0200001B0200001902000018020000160200001402000012020000110200000F0200000D0200000C0200000A0200000902000007020000050200000402000078
:406800000202000000020000FF010000FD010000FC010000FA010000F8010000F7010000F5010000F4010000F2010000F1010000EF010000EE010000EC010000EA010000E4
:40684000E9010000E7010000E6010000E4010000E3010000E1010000E0010000DE010000DD010000DB010000DA010000D8010000D7010000D6010000D4010000D30100002E
:40688000D1010000D0010000CE010000CD010000CB010000CA010000C9010000C7010000C6010000C4010000C3010000C2010000C0010000BF010000BE010000BC0100005F
:4068C000BB010000B9010000B8010000B7010000B5010000B4010000B3010000B1010000B0010000AF010000AD010000AC010000AB010000AA010000A8010000A70100007C
:40690000A6010000A4010000A3010000A2010000A10100009F0100009E0100009D0100009C0100009A01000099010000980100009701000095010000940100009301000083
:4069400092010000900100008F0100008E0100008D0100008C0100008A0100008901000088010000870100008601000085010000830100008201000081010000800100007C
:406980007F0100007E0100007D0100007B0100007A0100007901000078010000770100007601000075010000740100007201000071010000700100006F0100006E01000061
:4069C0006D0100006C0100006B0100006A0100006901000068010000660100006501000064010000630100006201000061010000600100005F0100005E0100005D01000039
:406A00005C0100005B0100005A010000590100005801000057010000560100005501000054010000530100005201000051010000500100004F0100004E0100004D010000FE
:406A40004C0100004B0100004A01000049010000480100004701000046010000450100004401000043010000420100004101000041010000400100003F0100003E010000BA
:406A80003D0100003C0100003B0100003A01000039010000380100003701000036010000360100003501000034010000330100003201000031010000300100002F01000066
:406AC0002E0100002E0100002D0100002C0100002B0100002A0100002901000028010000280100002701000026010000250100002401000023010000230100002201000005
:406B000021010000200100001F0100001E0100001E0100001D0100001C0100001B0100001A0100001901000019010000180100001701000016010000160100001501000099
:406B40001401000013010000120100001201000011010000100100000F0100000F0100000E0100000D0100000C0100000B0100000B0100000A010000090100000801000023
:406B800008010000070100000601000005010000050100000401000000040000001400000014000000150000001500000014000000140000000000000700000040EE2010C9
:406BC000D800049003000300020002000002000E000000007F0000000000000000000000B0040000010000000700400005004000060040006100010115006101600040008F
:406C000062004000206C0000360300204403002094020020900200200100020001020000000102400801044000010440040104400000F0002000000014050F00000102405F
:406C4000080104400001044004010440000000F0800000001C0715001000640028280A031E642080000000002020000000000000EEDBC9B9AA9B8E82766B60564D443B3328
:406C80002C241D17100A0400EA470000B2470000CE470000A6470000CE47000012470000CE470000A6470000B2470000B247000012470000A647000050480000504800002E
:406CC00050480000D4470000B2470000B24700009A480000A44700009A480000124700009A480000A4470000B2470000B247000012470000A44700005048000050480000B4
:406D0000504800007E4800003E4A0000364A0000364A00002E4A00008049000080490000244A00002E4A000080490000244A0000804900002E4A000082490000824900006F
:406D400082490000C84A0000F8B5C046F8BC08BC9E46704751020000450B0000F8B5C046F8BC08BC9E46704729020000806D0000B000002018010000A00100000000000065
:406D80000000000002000004006CDC0280BB0000300000000000C05D0500060000033440074777803003344020220000340334400000000078033440010000000803344031
:406DC000050005140C03344005000000100334400000051450033440000102005803344010F0020060033440000201006803344020F001006C033440F030000070033440FE
:406E0000FF0000007403344010221200C8000020CC0000200000020E050B060E000234400707778030023440200000003402344001000000780234400100002008023440A3
:406E4000C00F001F0C023440C00F0000100234400000001F200234401600000040023440000A000044023440000900004802344010000A006C023440A9390000700234407D
:406E8000F000000F740234400AA0AA00480100204C0100200000020E00000000000000000000000000000000000000000000000000000000000000000000000000000000AF
:406EC0000000000000000000000000000000000000000000000000000000000000000000000000000000000000000000000000000000000000000000000000000000000092
:406F00000000000000000000000000000000000000000000000000000000000000000000000000000000000000000000000000000000000000000000000000000000000051
:406F40000000000000000000000000000000000000000000000000000000000000000000000000000000000000000000000000000000000000000000000000000000000011
:406F800000000000000000000000000000000000000000000000000000000000000000000000000000000000000000000000000000000000000000000000000000000000D1
:0200000490303A
:020000009C5210
:0200000490402A
:200000000000000000000000000000000000000000000000000000000000000000000000E0
:0200000490501A
:0C00000000021C0011AC00011C20ADFE31
:0200000490600A
:0100000001FE
:00000001FF